{
    "contractName": "UniswapFunctions",
    "abi": [
        {
            "inputs": [],
            "stateMutability": "nonpayable",
            "type": "constructor"
        },
        {
            "inputs": [
                {
                    "internalType": "uint256",
                    "name": "_amountOut",
                    "type": "uint256"
                },
                {
                    "internalType": "address",
                    "name": "_tokenOut",
                    "type": "address"
                },
                {
                    "internalType": "address",
                    "name": "_to",
                    "type": "address"
                }
            ],
            "name": "swapEthForExactTokensTest",
            "outputs": [],
            "stateMutability": "payable",
            "type": "function"
        },
        {
            "inputs": [
                {
                    "internalType": "uint256",
                    "name": "_amountOutMin",
                    "type": "uint256"
                },
                {
                    "internalType": "address",
                    "name": "_tokenOut",
                    "type": "address"
                },
                {
                    "internalType": "address",
                    "name": "_to",
                    "type": "address"
                }
            ],
            "name": "swapExactEthForTokensTest",
            "outputs": [],
            "stateMutability": "payable",
            "type": "function"
        },
        {
            "inputs": [
                {
                    "internalType": "uint256",
                    "name": "_amountIn",
                    "type": "uint256"
                },
                {
                    "internalType": "address",
                    "name": "_tokenIn",
                    "type": "address"
                },
                {
                    "internalType": "uint256",
                    "name": "_amountOutMin",
                    "type": "uint256"
                },
                {
                    "internalType": "address",
                    "name": "_to",
                    "type": "address"
                }
            ],
            "name": "swapExactTokensForETHTest",
            "outputs": [],
            "stateMutability": "nonpayable",
            "type": "function"
        },
        {
            "inputs": [
                {
                    "internalType": "uint256",
                    "name": "_amountOut",
                    "type": "uint256"
                },
                {
                    "internalType": "address",
                    "name": "_tokenIn",
                    "type": "address"
                },
                {
                    "internalType": "uint256",
                    "name": "_amountInMax",
                    "type": "uint256"
                },
                {
                    "internalType": "address",
                    "name": "_to",
                    "type": "address"
                }
            ],
            "name": "swapTokensForExactEthTest",
            "outputs": [],
            "stateMutability": "nonpayable",
            "type": "function"
        },
        {
            "inputs": [
                {
                    "internalType": "address",
                    "name": "_tokenIn",
                    "type": "address"
                },
                {
                    "internalType": "address",
                    "name": "_tokenOut",
                    "type": "address"
                },
                {
                    "internalType": "uint256",
                    "name": "_amountOut",
                    "type": "uint256"
                },
                {
                    "internalType": "uint256",
                    "name": "_amountInMax",
                    "type": "uint256"
                },
                {
                    "internalType": "address",
                    "name": "_to",
                    "type": "address"
                }
            ],
            "name": "swapTokensForExactTokensTest",
            "outputs": [],
            "stateMutability": "nonpayable",
            "type": "function"
        },
        {
            "inputs": [
                {
                    "internalType": "address",
                    "name": "_tokenIn",
                    "type": "address"
                },
                {
                    "internalType": "address",
                    "name": "_tokenOut",
                    "type": "address"
                },
                {
                    "internalType": "uint256",
                    "name": "_amountIn",
                    "type": "uint256"
                },
                {
                    "internalType": "uint256",
                    "name": "_amountOutMin",
                    "type": "uint256"
                },
                {
                    "internalType": "address",
                    "name": "_to",
                    "type": "address"
                }
            ],
            "name": "swapTokensForTokensTest",
            "outputs": [],
            "stateMutability": "nonpayable",
            "type": "function"
        },
        {
            "inputs": [],
            "name": "uniswapFactory",
            "outputs": [
                {
                    "internalType": "contract IUniswapV2Factory",
                    "name": "",
                    "type": "address"
                }
            ],
            "stateMutability": "view",
            "type": "function"
        },
        {
            "inputs": [],
            "name": "uniswapRouter",
            "outputs": [
                {
                    "internalType": "contract IUniswapV2Router02",
                    "name": "",
                    "type": "address"
                }
            ],
            "stateMutability": "view",
            "type": "function"
        }
    ],
    "bytecode": "6080604052600280546001600160a01b031916734f96fe3b7a6cf9725f59d353f723c1bdb64ca6aa17905534801561003657600080fd5b50600080546001600160a01b0319908116737a250d5630b4cf539739df2c5dacb4c659f2488d1790915560018054909116735c69bee701ef814a2b6a3edd4b1652cb9cc5aa6f179055610f5b8061008e6000396000f3fe60806040526004361061007b5760003560e01c8063735de9f71161004e578063735de9f7146100e85780638bdb2afa14610124578063e11bb8ad14610144578063ef3b31af1461016457600080fd5b80630d3ed4f61461008057806317a9900b146100a25780633395a6b6146100c2578063718b1326146100d5575b600080fd5b34801561008c57600080fd5b506100a061009b366004610c60565b610184565b005b3480156100ae57600080fd5b506100a06100bd366004610ca6565b6103a0565b6100a06100d0366004610cfd565b6105f3565b6100a06100e3366004610cfd565b6107a1565b3480156100f457600080fd5b50600054610108906001600160a01b031681565b6040516001600160a01b03909116815260200160405180910390f35b34801561013057600080fd5b50600154610108906001600160a01b031681565b34801561015057600080fd5b506100a061015f366004610ca6565b610874565b34801561017057600080fd5b506100a061017f366004610c60565b610a77565b6040516323b872dd60e01b81526001600160a01b038416906323b872dd906101b490339030908790600401610d39565b6020604051808303816000875af11580156101d3573d6000803e3d6000fd5b505050506040513d601f19601f820116820180604052508101906101f79190610d5d565b5060405163095ea7b360e01b8152737a250d5630b4cf539739df2c5dacb4c659f2488d6004820152602481018390526001600160a01b0384169063095ea7b3906044016020604051808303816000875af1158015610259573d6000803e3d6000fd5b505050506040513d601f19601f8201168201806040525081019061027d9190610d5d565b50604080516002808252606080830184529260208301908036833701905050905083816000815181106102b2576102b2610d9c565b60200260200101906001600160a01b031690816001600160a01b03168152505073c02aaa39b223fe8d0a0e5c4f27ead9083c756cc2816001815181106102fa576102fa610d9c565b6001600160a01b0390921660209283029190910190910152604051632512eca560e11b8152737a250d5630b4cf539739df2c5dacb4c659f2488d90634a25d94a906103519088908790869088904290600401610df6565b6000604051808303816000875af1158015610370573d6000803e3d6000fd5b505050506040513d6000823e601f3d908101601f191682016040526103989190810190610e32565b505050505050565b6040516323b872dd60e01b81526001600160a01b038616906323b872dd906103d090339030908890600401610d39565b6020604051808303816000875af11580156103ef573d6000803e3d6000fd5b505050506040513d601f19601f820116820180604052508101906104139190610d5d565b5060405163095ea7b360e01b8152737a250d5630b4cf539739df2c5dacb4c659f2488d6004820152602481018490526001600160a01b0386169063095ea7b3906044016020604051808303816000875af1158015610475573d6000803e3d6000fd5b505050506040513d601f19601f820116820180604052508101906104999190610d5d565b506040805160038082526080820190925260609160208201838036833701905050905085816000815181106104d0576104d0610d9c565b60200260200101906001600160a01b031690816001600160a01b03168152505073c02aaa39b223fe8d0a0e5c4f27ead9083c756cc28160018151811061051857610518610d9c565b60200260200101906001600160a01b031690816001600160a01b031681525050848160028151811061054c5761054c610d9c565b6001600160a01b03909216602092830291909101909101526040516338ed173960e01b8152737a250d5630b4cf539739df2c5dacb4c659f2488d906338ed1739906105a39087908790869088904290600401610df6565b6000604051808303816000875af11580156105c2573d6000803e3d6000fd5b505050506040513d6000823e601f3d908101601f191682016040526105ea9190810190610e32565b50505050505050565b604080516002808252606080830184529260208301908036833701905050905073c02aaa39b223fe8d0a0e5c4f27ead9083c756cc28160008151811061063b5761063b610d9c565b60200260200101906001600160a01b031690816001600160a01b031681525050828160018151811061066f5761066f610d9c565b6001600160a01b039092166020928302919091019091015260405163fb3bdb4160e01b8152737a250d5630b4cf539739df2c5dacb4c659f2488d9063fb3bdb419034906106c6908890869088904290600401610ef0565b60006040518083038185885af11580156106e4573d6000803e3d6000fd5b50505050506040513d6000823e601f3d908101601f1916820160405261070d9190810190610e32565b50604051600090339047908381818185875af1925050503d8060008114610750576040519150601f19603f3d011682016040523d82523d6000602084013e610755565b606091505b505090508061079a5760405162461bcd60e51b815260206004820152600d60248201526c1c99599d5b990819985a5b1959609a1b604482015260640160405180910390fd5b5050505050565b604080516002808252606080830184529260208301908036833701905050905073c02aaa39b223fe8d0a0e5c4f27ead9083c756cc2816000815181106107e9576107e9610d9c565b60200260200101906001600160a01b031690816001600160a01b031681525050828160018151811061081d5761081d610d9c565b6001600160a01b0390921660209283029190910190910152604051637ff36ab560e01b8152737a250d5630b4cf539739df2c5dacb4c659f2488d90637ff36ab59034906106c6908890869088904290600401610ef0565b6040516323b872dd60e01b81526001600160a01b038616906323b872dd906108a490339030908790600401610d39565b6020604051808303816000875af11580156108c3573d6000803e3d6000fd5b505050506040513d601f19601f820116820180604052508101906108e79190610d5d565b5060405163095ea7b360e01b8152737a250d5630b4cf539739df2c5dacb4c659f2488d6004820152602481018390526001600160a01b0386169063095ea7b3906044016020604051808303816000875af1158015610949573d6000803e3d6000fd5b505050506040513d601f19601f8201168201806040525081019061096d9190610d5d565b506040805160038082526080820190925260609160208201838036833701905050905085816000815181106109a4576109a4610d9c565b60200260200101906001600160a01b031690816001600160a01b03168152505073c02aaa39b223fe8d0a0e5c4f27ead9083c756cc2816001815181106109ec576109ec610d9c565b60200260200101906001600160a01b031690816001600160a01b0316815250508481600281518110610a2057610a20610d9c565b6001600160a01b0390921660209283029190910190910152604051634401edf760e11b8152737a250d5630b4cf539739df2c5dacb4c659f2488d90638803dbee906105a39087908790869088904290600401610df6565b6040516323b872dd60e01b81526001600160a01b038416906323b872dd90610aa790339030908990600401610d39565b6020604051808303816000875af1158015610ac6573d6000803e3d6000fd5b505050506040513d601f19601f82011682018060405250810190610aea9190610d5d565b5060405163095ea7b360e01b8152737a250d5630b4cf539739df2c5dacb4c659f2488d6004820152602481018590526001600160a01b0384169063095ea7b3906044016020604051808303816000875af1158015610b4c573d6000803e3d6000fd5b505050506040513d601f19601f82011682018060405250810190610b709190610d5d565b5060408051600280825260608083018452926020830190803683370190505090508381600081518110610ba557610ba5610d9c565b60200260200101906001600160a01b031690816001600160a01b03168152505073c02aaa39b223fe8d0a0e5c4f27ead9083c756cc281600181518110610bed57610bed610d9c565b6001600160a01b03909216602092830291909101909101526040516318cbafe560e01b8152737a250d5630b4cf539739df2c5dacb4c659f2488d906318cbafe5906103519088908790869088904290600401610df6565b80356001600160a01b0381168114610c5b57600080fd5b919050565b60008060008060808587031215610c7657600080fd5b84359350610c8660208601610c44565b925060408501359150610c9b60608601610c44565b905092959194509250565b600080600080600060a08688031215610cbe57600080fd5b610cc786610c44565b9450610cd560208701610c44565b93506040860135925060608601359150610cf160808701610c44565b90509295509295909350565b600080600060608486031215610d1257600080fd5b83359250610d2260208501610c44565b9150610d3060408501610c44565b90509250925092565b6001600160a01b039384168152919092166020820152604081019190915260600190565b600060208284031215610d6f57600080fd5b81518015158114610d7f57600080fd5b9392505050565b634e487b7160e01b600052604160045260246000fd5b634e487b7160e01b600052603260045260246000fd5b600081518084526020808501945080840160005b83811015610deb5781516001600160a01b031687529582019590820190600101610dc6565b509495945050505050565b85815284602082015260a060408201526000610e1560a0830186610db2565b6001600160a01b0394909416606083015250608001529392505050565b60006020808385031215610e4557600080fd5b825167ffffffffffffffff80821115610e5d57600080fd5b818501915085601f830112610e7157600080fd5b815181811115610e8357610e83610d86565b8060051b604051601f19603f83011681018181108582111715610ea857610ea8610d86565b604052918252848201925083810185019188831115610ec657600080fd5b938501935b82851015610ee457845184529385019392850192610ecb565b98975050505050505050565b848152608060208201526000610f096080830186610db2565b6001600160a01b0394909416604083015250606001529291505056fea26469706673582212209708f55b356abbf19aaaad2310bf452b4ac5c591c2895be6993c642ba741363564736f6c634300080b0033",
    "sourcePath": "/home/adil/Desktop/UniswapV2/contracts/UniswapFunctions.sol",
    "compiler": {
        "name": "solc",
        "version": "0.8.11+commit.d7f03943"
    },
    "functionHashes": {
        "swapEthForExactTokensTest(uint256,address,address)": "3395a6b6",
        "swapExactEthForTokensTest(uint256,address,address)": "718b1326",
        "swapExactTokensForETHTest(uint256,address,uint256,address)": "ef3b31af",
        "swapTokensForExactEthTest(uint256,address,uint256,address)": "0d3ed4f6",
        "swapTokensForExactTokensTest(address,address,uint256,uint256,address)": "e11bb8ad",
        "swapTokensForTokensTest(address,address,uint256,uint256,address)": "17a9900b",
        "uniswapFactory()": "8bdb2afa",
        "uniswapRouter()": "735de9f7"
    },
    "gasEstimates": {
        "creation": {
            "codeDepositCost": "786200",
            "executionCost": "73523",
            "totalCost": "859723"
        },
        "external": {
            "swapEthForExactTokensTest(uint256,address,address)": "infinite",
            "swapExactEthForTokensTest(uint256,address,address)": "infinite",
            "swapExactTokensForETHTest(uint256,address,uint256,address)": "infinite",
            "swapTokensForExactEthTest(uint256,address,uint256,address)": "infinite",
            "swapTokensForExactTokensTest(address,address,uint256,uint256,address)": "infinite",
            "swapTokensForTokensTest(address,address,uint256,uint256,address)": "infinite",
            "uniswapFactory()": "2347",
            "uniswapRouter()": "2325"
        }
    }
}