{
  "contractName": "Liquidity",
  "abi": [
    {
      "inputs": [],
      "stateMutability": "nonpayable",
      "type": "constructor"
    },
    {
      "anonymous": false,
      "inputs": [
        {
          "indexed": false,
          "internalType": "string",
          "name": "message",
          "type": "string"
        },
        {
          "indexed": false,
          "internalType": "uint256",
          "name": "value",
          "type": "uint256"
        }
      ],
      "name": "log",
      "type": "event"
    },
    {
      "inputs": [],
      "name": "uniswapFactory",
      "outputs": [
        {
          "internalType": "contract IUniswapV2Factory",
          "name": "",
          "type": "address"
        }
      ],
      "stateMutability": "view",
      "type": "function"
    },
    {
      "inputs": [],
      "name": "uniswapRouter",
      "outputs": [
        {
          "internalType": "contract IUniswapV2Router02",
          "name": "",
          "type": "address"
        }
      ],
      "stateMutability": "view",
      "type": "function"
    },
    {
      "inputs": [
        {
          "internalType": "address",
          "name": "_tokenA",
          "type": "address"
        },
        {
          "internalType": "address",
          "name": "_tokenB",
          "type": "address"
        },
        {
          "internalType": "uint256",
          "name": "_amountA",
          "type": "uint256"
        },
        {
          "internalType": "uint256",
          "name": "_amountB",
          "type": "uint256"
        }
      ],
      "name": "addLiquidity",
      "outputs": [],
      "stateMutability": "nonpayable",
      "type": "function"
    },
    {
      "inputs": [
        {
          "internalType": "address",
          "name": "_tokenA",
          "type": "address"
        },
        {
          "internalType": "address",
          "name": "_tokenB",
          "type": "address"
        }
      ],
      "name": "removeLiquidity",
      "outputs": [],
      "stateMutability": "nonpayable",
      "type": "function"
    }
  ],
  "bytecode": "0x6080604052734f96fe3b7a6cf9725f59d353f723c1bdb64ca6aa600260006101000a81548173ffffffffffffffffffffffffffffffffffffffff021916908373ffffffffffffffffffffffffffffffffffffffff16021790555034801561006557600080fd5b50737a250d5630b4cf539739df2c5dacb4c659f2488d6000806101000a81548173ffffffffffffffffffffffffffffffffffffffff021916908373ffffffffffffffffffffffffffffffffffffffff160217905550735c69bee701ef814a2b6a3edd4b1652cb9cc5aa6f600160006101000a81548173ffffffffffffffffffffffffffffffffffffffff021916908373ffffffffffffffffffffffffffffffffffffffff160217905550610e6c8061011e6000396000f3fe608060405234801561001057600080fd5b506004361061004c5760003560e01c8063735de9f7146100515780638bdb2afa1461006f5780639cf38f7c1461008d578063cf6c62ea146100a9575b600080fd5b6100596100c5565b60405161006691906107da565b60405180910390f35b6100776100e9565b6040516100849190610816565b60405180910390f35b6100a760048036038101906100a29190610874565b61010f565b005b6100c360048036038101906100be91906108ea565b6103db565b005b60008054906101000a900473ffffffffffffffffffffffffffffffffffffffff1681565b600160009054906101000a900473ffffffffffffffffffffffffffffffffffffffff1681565b6000600160009054906101000a900473ffffffffffffffffffffffffffffffffffffffff1673ffffffffffffffffffffffffffffffffffffffff1663e6a4390584846040518363ffffffff1660e01b815260040161016e929190610960565b602060405180830381865afa15801561018b573d6000803e3d6000fd5b505050506040513d601f19601f820116820180604052508101906101af919061099e565b905060008173ffffffffffffffffffffffffffffffffffffffff166370a08231306040518263ffffffff1660e01b81526004016101ec91906109cb565b602060405180830381865afa158015610209573d6000803e3d6000fd5b505050506040513d601f19601f8201168201806040525081019061022d91906109fb565b90508173ffffffffffffffffffffffffffffffffffffffff1663095ea7b3737a250d5630b4cf539739df2c5dacb4c659f2488d836040518363ffffffff1660e01b815260040161027e929190610a37565b6020604051808303816000875af115801561029d573d6000803e3d6000fd5b505050506040513d601f19601f820116820180604052508101906102c19190610a98565b50600080737a250d5630b4cf539739df2c5dacb4c659f2488d73ffffffffffffffffffffffffffffffffffffffff1663baa2abde87878660018030426040518863ffffffff1660e01b815260040161031f9796959493929190610b00565b60408051808303816000875af115801561033d573d6000803e3d6000fd5b505050506040513d601f19601f820116820180604052508101906103619190610b6f565b915091507fb60e72ccf6d57ab53eb84d7e94a9545806ed7f93c4d5673f11a64f03471e584e826040516103949190610c0c565b60405180910390a17fb60e72ccf6d57ab53eb84d7e94a9545806ed7f93c4d5673f11a64f03471e584e816040516103cb9190610c86565b60405180910390a1505050505050565b8373ffffffffffffffffffffffffffffffffffffffff166323b872dd3330856040518463ffffffff1660e01b815260040161041893929190610cb4565b6020604051808303816000875af1158015610437573d6000803e3d6000fd5b505050506040513d601f19601f8201168201806040525081019061045b9190610a98565b508273ffffffffffffffffffffffffffffffffffffffff166323b872dd3330846040518463ffffffff1660e01b815260040161049993929190610cb4565b6020604051808303816000875af11580156104b8573d6000803e3d6000fd5b505050506040513d601f19601f820116820180604052508101906104dc9190610a98565b508373ffffffffffffffffffffffffffffffffffffffff1663095ea7b3737a250d5630b4cf539739df2c5dacb4c659f2488d846040518363ffffffff1660e01b815260040161052c929190610a37565b6020604051808303816000875af115801561054b573d6000803e3d6000fd5b505050506040513d601f19601f8201168201806040525081019061056f9190610a98565b508273ffffffffffffffffffffffffffffffffffffffff1663095ea7b3737a250d5630b4cf539739df2c5dacb4c659f2488d836040518363ffffffff1660e01b81526004016105bf929190610a37565b6020604051808303816000875af11580156105de573d6000803e3d6000fd5b505050506040513d601f19601f820116820180604052508101906106029190610a98565b506000806000737a250d5630b4cf539739df2c5dacb4c659f2488d73ffffffffffffffffffffffffffffffffffffffff1663e8e337008888888860018030426040518963ffffffff1660e01b8152600401610664989796959493929190610ceb565b6060604051808303816000875af1158015610683573d6000803e3d6000fd5b505050506040513d601f19601f820116820180604052508101906106a79190610d69565b9250925092507fb60e72ccf6d57ab53eb84d7e94a9545806ed7f93c4d5673f11a64f03471e584e836040516106dc9190610c0c565b60405180910390a17fb60e72ccf6d57ab53eb84d7e94a9545806ed7f93c4d5673f11a64f03471e584e826040516107139190610c86565b60405180910390a17fb60e72ccf6d57ab53eb84d7e94a9545806ed7f93c4d5673f11a64f03471e584e8160405161074a9190610e08565b60405180910390a150505050505050565b600073ffffffffffffffffffffffffffffffffffffffff82169050919050565b6000819050919050565b60006107a061079b6107968461075b565b61077b565b61075b565b9050919050565b60006107b282610785565b9050919050565b60006107c4826107a7565b9050919050565b6107d4816107b9565b82525050565b60006020820190506107ef60008301846107cb565b92915050565b6000610800826107a7565b9050919050565b610810816107f5565b82525050565b600060208201905061082b6000830184610807565b92915050565b600080fd5b60006108418261075b565b9050919050565b61085181610836565b811461085c57600080fd5b50565b60008135905061086e81610848565b92915050565b6000806040838503121561088b5761088a610831565b5b60006108998582860161085f565b92505060206108aa8582860161085f565b9150509250929050565b6000819050919050565b6108c7816108b4565b81146108d257600080fd5b50565b6000813590506108e4816108be565b92915050565b6000806000806080858703121561090457610903610831565b5b60006109128782880161085f565b94505060206109238782880161085f565b9350506040610934878288016108d5565b9250506060610945878288016108d5565b91505092959194509250565b61095a81610836565b82525050565b60006040820190506109756000830185610951565b6109826020830184610951565b9392505050565b60008151905061099881610848565b92915050565b6000602082840312156109b4576109b3610831565b5b60006109c284828501610989565b91505092915050565b60006020820190506109e06000830184610951565b92915050565b6000815190506109f5816108be565b92915050565b600060208284031215610a1157610a10610831565b5b6000610a1f848285016109e6565b91505092915050565b610a31816108b4565b82525050565b6000604082019050610a4c6000830185610951565b610a596020830184610a28565b9392505050565b60008115159050919050565b610a7581610a60565b8114610a8057600080fd5b50565b600081519050610a9281610a6c565b92915050565b600060208284031215610aae57610aad610831565b5b6000610abc84828501610a83565b91505092915050565b6000819050919050565b6000610aea610ae5610ae084610ac5565b61077b565b6108b4565b9050919050565b610afa81610acf565b82525050565b600060e082019050610b15600083018a610951565b610b226020830189610951565b610b2f6040830188610a28565b610b3c6060830187610af1565b610b496080830186610af1565b610b5660a0830185610951565b610b6360c0830184610a28565b98975050505050505050565b60008060408385031215610b8657610b85610831565b5b6000610b94858286016109e6565b9250506020610ba5858286016109e6565b9150509250929050565b600082825260208201905092915050565b7f416d6f756e742041000000000000000000000000000000000000000000000000600082015250565b6000610bf6600883610baf565b9150610c0182610bc0565b602082019050919050565b60006040820190508181036000830152610c2581610be9565b9050610c346020830184610a28565b92915050565b7f416d6f756e742042000000000000000000000000000000000000000000000000600082015250565b6000610c70600883610baf565b9150610c7b82610c3a565b602082019050919050565b60006040820190508181036000830152610c9f81610c63565b9050610cae6020830184610a28565b92915050565b6000606082019050610cc96000830186610951565b610cd66020830185610951565b610ce36040830184610a28565b949350505050565b600061010082019050610d01600083018b610951565b610d0e602083018a610951565b610d1b6040830189610a28565b610d286060830188610a28565b610d356080830187610af1565b610d4260a0830186610af1565b610d4f60c0830185610951565b610d5c60e0830184610a28565b9998505050505050505050565b600080600060608486031215610d8257610d81610831565b5b6000610d90868287016109e6565b9350506020610da1868287016109e6565b9250506040610db2868287016109e6565b9150509250925092565b7f6c69717569646974790000000000000000000000000000000000000000000000600082015250565b6000610df2600983610baf565b9150610dfd82610dbc565b602082019050919050565b60006040820190508181036000830152610e2181610de5565b9050610e306020830184610a28565b9291505056fea2646970667358221220d8bf999bdd20667b2cdf84a3143b73d72d11b9d128ab633b58afb72d2e35631c64736f6c634300080b0033",
  "immutableReferences": {},
  "source": "// SPDX-License-Identifier: GPL-3.0\n\npragma solidity ^0.8.11;\n\nimport \"@uniswap/v2-core/contracts/interfaces/IUniswapV2Factory.sol\";\nimport \"@uniswap/v2-periphery/contracts/interfaces/IUniswapV2Router02.sol\";\nimport \"@uniswap/v2-periphery/contracts/interfaces/IERC20.sol\";\nimport \"@uniswap/v2-core/contracts/interfaces/IUniswapV2Callee.sol\";\n\ncontract Liquidity {\n    address internal constant UNISWAP_FACTORY_ADDRESS =\n        0x5C69bEe701ef814a2B6a3EDD4B1652CB9cc5aA6f;\n\n    address internal constant UNISWAP_ROUTER_ADDRESS =\n        0x7a250d5630B4cF539739dF2C5dAcb4c659F2488D;\n\n    IUniswapV2Router02 public uniswapRouter;\n    IUniswapV2Factory public uniswapFactory;\n\n    address private multiDaiKovan = 0x4F96Fe3b7A6Cf9725f59d353F723c1bDb64CA6Aa;\n\n    address private constant WETH = 0xC02aaA39b223FE8D0A0e5C4F27eAD9083C756Cc2;\n\n    constructor() {\n        uniswapRouter = IUniswapV2Router02(UNISWAP_ROUTER_ADDRESS);\n        uniswapFactory = IUniswapV2Factory(UNISWAP_FACTORY_ADDRESS);\n    }\n\n    event log(string message, uint256 value);\n\n    function addLiquidity(\n        address _tokenA,\n        address _tokenB,\n        uint256 _amountA,\n        uint256 _amountB\n    ) external {\n        //transform the two tokens\n        IERC20(_tokenA).transferFrom(msg.sender, address(this), _amountA);\n        IERC20(_tokenB).transferFrom(msg.sender, address(this), _amountB);\n        IERC20(_tokenA).approve(UNISWAP_ROUTER_ADDRESS, _amountA);\n        IERC20(_tokenB).approve(UNISWAP_ROUTER_ADDRESS, _amountB);\n\n        (\n            uint256 amountA,\n            uint256 amountB,\n            uint256 liquidity\n        ) = IUniswapV2Router01(UNISWAP_ROUTER_ADDRESS).addLiquidity(\n                _tokenA,\n                _tokenB,\n                _amountA,\n                _amountB,\n                1,\n                1,\n                address(this),\n                block.timestamp\n            );\n\n        emit log(\"Amount A\", amountA);\n        emit log(\"Amount B\", amountB);\n        emit log(\"liquidity\", liquidity);\n    }\n\n    function removeLiquidity(address _tokenA, address _tokenB) external {\n        //the first thing we will do is get the balance of liquidity tokens that this\n        //contract holds So you need to get address of the contract that managed liquidity pool\n        //tokens and tokenA and tokenB we do that by calling getPair\n        //the pair contract managed all the trading of A and B and also managed mint and burn\n        //of liquidity token\n        address pair = IUniswapV2Factory(uniswapFactory).getPair(\n            _tokenA,\n            _tokenB\n        );\n        uint256 liquidity = IERC20(pair).balanceOf(address(this));\n        //we are gonna burn all of our liquidity tokens and claim max amount\n        //of tokenA and tokenB plus all trading fee so we are approving\n        IERC20(pair).approve(UNISWAP_ROUTER_ADDRESS, liquidity);\n\n        (uint256 amountA, uint256 amountB) = IUniswapV2Router01(\n            UNISWAP_ROUTER_ADDRESS\n        ).removeLiquidity(\n                _tokenA,\n                _tokenB,\n                liquidity,\n                1,\n                1,\n                address(this),\n                block.timestamp\n            );\n\n        emit log(\"Amount A\", amountA);\n        emit log(\"Amount B\", amountB);\n    }\n}\n",
  "sourcePath": "/home/adil/Desktop/UniswapV2/contracts/Liquidity.sol",
  "compiler": {
    "name": "solc",
    "version": "0.8.11+commit.d7f03943.Emscripten.clang"
  },
  "schemaVersion": "3.4.4",
  "updatedAt": "2022-02-04T08:31:43.911Z",
  "devdoc": {
    "kind": "dev",
    "methods": {},
    "version": 1
  },
  "userdoc": {
    "kind": "user",
    "methods": {},
    "version": 1
  }
}