{
  "contractName": "UniswapFunctions",
  "abi": [
    {
      "inputs": [],
      "stateMutability": "nonpayable",
      "type": "constructor"
    },
    {
      "inputs": [],
      "name": "uniswapFactory",
      "outputs": [
        {
          "internalType": "contract IUniswapV2Factory",
          "name": "",
          "type": "address"
        }
      ],
      "stateMutability": "view",
      "type": "function"
    },
    {
      "inputs": [],
      "name": "uniswapRouter",
      "outputs": [
        {
          "internalType": "contract IUniswapV2Router02",
          "name": "",
          "type": "address"
        }
      ],
      "stateMutability": "view",
      "type": "function"
    },
    {
      "inputs": [
        {
          "internalType": "address",
          "name": "_tokenIn",
          "type": "address"
        },
        {
          "internalType": "address",
          "name": "_tokenOut",
          "type": "address"
        },
        {
          "internalType": "uint256",
          "name": "_amountIn",
          "type": "uint256"
        },
        {
          "internalType": "uint256",
          "name": "_amountOutMin",
          "type": "uint256"
        },
        {
          "internalType": "address",
          "name": "_to",
          "type": "address"
        }
      ],
      "name": "swapTokensForTokensTest",
      "outputs": [],
      "stateMutability": "nonpayable",
      "type": "function"
    },
    {
      "inputs": [
        {
          "internalType": "address",
          "name": "_tokenIn",
          "type": "address"
        },
        {
          "internalType": "address",
          "name": "_tokenOut",
          "type": "address"
        },
        {
          "internalType": "uint256",
          "name": "_amountOut",
          "type": "uint256"
        },
        {
          "internalType": "uint256",
          "name": "_amountInMax",
          "type": "uint256"
        },
        {
          "internalType": "address",
          "name": "_to",
          "type": "address"
        }
      ],
      "name": "swapTokensForExactTokensTest",
      "outputs": [],
      "stateMutability": "nonpayable",
      "type": "function"
    },
    {
      "inputs": [
        {
          "internalType": "uint256",
          "name": "_amountOutMin",
          "type": "uint256"
        },
        {
          "internalType": "address",
          "name": "_tokenOut",
          "type": "address"
        },
        {
          "internalType": "address",
          "name": "_to",
          "type": "address"
        }
      ],
      "name": "swapExactEthForTokensTest",
      "outputs": [],
      "stateMutability": "payable",
      "type": "function"
    },
    {
      "inputs": [
        {
          "internalType": "uint256",
          "name": "_amountOut",
          "type": "uint256"
        },
        {
          "internalType": "address",
          "name": "_tokenIn",
          "type": "address"
        },
        {
          "internalType": "uint256",
          "name": "_amountInMax",
          "type": "uint256"
        },
        {
          "internalType": "address",
          "name": "_to",
          "type": "address"
        }
      ],
      "name": "swapTokensForExactEthTest",
      "outputs": [],
      "stateMutability": "nonpayable",
      "type": "function"
    },
    {
      "inputs": [
        {
          "internalType": "uint256",
          "name": "_amountIn",
          "type": "uint256"
        },
        {
          "internalType": "address",
          "name": "_tokenIn",
          "type": "address"
        },
        {
          "internalType": "uint256",
          "name": "_amountOutMin",
          "type": "uint256"
        },
        {
          "internalType": "address",
          "name": "_to",
          "type": "address"
        }
      ],
      "name": "swapExactTokensForETHTest",
      "outputs": [],
      "stateMutability": "nonpayable",
      "type": "function"
    },
    {
      "inputs": [
        {
          "internalType": "uint256",
          "name": "_amountOut",
          "type": "uint256"
        },
        {
          "internalType": "address",
          "name": "_tokenOut",
          "type": "address"
        },
        {
          "internalType": "address",
          "name": "_to",
          "type": "address"
        }
      ],
      "name": "swapEthForExactTokensTest",
      "outputs": [],
      "stateMutability": "payable",
      "type": "function"
    }
  ],
  "bytecode": "0x6080604052734f96fe3b7a6cf9725f59d353f723c1bdb64ca6aa600260006101000a81548173ffffffffffffffffffffffffffffffffffffffff021916908373ffffffffffffffffffffffffffffffffffffffff16021790555034801561006557600080fd5b50737a250d5630b4cf539739df2c5dacb4c659f2488d6000806101000a81548173ffffffffffffffffffffffffffffffffffffffff021916908373ffffffffffffffffffffffffffffffffffffffff160217905550735c69bee701ef814a2b6a3edd4b1652cb9cc5aa6f600160006101000a81548173ffffffffffffffffffffffffffffffffffffffff021916908373ffffffffffffffffffffffffffffffffffffffff1602179055506119d98061011e6000396000f3fe60806040526004361061007b5760003560e01c8063735de9f71161004e578063735de9f71461010a5780638bdb2afa14610135578063e11bb8ad14610160578063ef3b31af146101895761007b565b80630d3ed4f61461008057806317a9900b146100a95780633395a6b6146100d2578063718b1326146100ee575b600080fd5b34801561008c57600080fd5b506100a760048036038101906100a291906112c8565b6101b2565b005b3480156100b557600080fd5b506100d060048036038101906100cb919061132f565b61046b565b005b6100ec60048036038101906100e791906113aa565b610774565b005b610108600480360381019061010391906113aa565b6109c4565b005b34801561011657600080fd5b5061011f610c14565b60405161012c919061145c565b60405180910390f35b34801561014157600080fd5b5061014a610c38565b6040516101579190611498565b60405180910390f35b34801561016c57600080fd5b506101876004803603810190610182919061132f565b610c5e565b005b34801561019557600080fd5b506101b060048036038101906101ab91906112c8565b610f67565b005b8273ffffffffffffffffffffffffffffffffffffffff166323b872dd3330856040518463ffffffff1660e01b81526004016101ef939291906114d1565b6020604051808303816000875af115801561020e573d6000803e3d6000fd5b505050506040513d601f19601f820116820180604052508101906102329190611540565b508273ffffffffffffffffffffffffffffffffffffffff1663095ea7b3737a250d5630b4cf539739df2c5dacb4c659f2488d846040518363ffffffff1660e01b815260040161028292919061156d565b6020604051808303816000875af11580156102a1573d6000803e3d6000fd5b505050506040513d601f19601f820116820180604052508101906102c59190611540565b506060600267ffffffffffffffff8111156102e3576102e2611596565b5b6040519080825280602002602001820160405280156103115781602001602082028036833780820191505090505b5090508381600081518110610329576103286115c5565b5b602002602001019073ffffffffffffffffffffffffffffffffffffffff16908173ffffffffffffffffffffffffffffffffffffffff168152505073c02aaa39b223fe8d0a0e5c4f27ead9083c756cc28160018151811061038c5761038b6115c5565b5b602002602001019073ffffffffffffffffffffffffffffffffffffffff16908173ffffffffffffffffffffffffffffffffffffffff1681525050737a250d5630b4cf539739df2c5dacb4c659f2488d73ffffffffffffffffffffffffffffffffffffffff16634a25d94a86858486426040518663ffffffff1660e01b815260040161041b9594939291906116b2565b6000604051808303816000875af115801561043a573d6000803e3d6000fd5b505050506040513d6000823e3d601f19601f82011682018060405250810190610463919061184b565b505050505050565b8473ffffffffffffffffffffffffffffffffffffffff166323b872dd3330866040518463ffffffff1660e01b81526004016104a8939291906114d1565b6020604051808303816000875af11580156104c7573d6000803e3d6000fd5b505050506040513d601f19601f820116820180604052508101906104eb9190611540565b508473ffffffffffffffffffffffffffffffffffffffff1663095ea7b3737a250d5630b4cf539739df2c5dacb4c659f2488d856040518363ffffffff1660e01b815260040161053b92919061156d565b6020604051808303816000875af115801561055a573d6000803e3d6000fd5b505050506040513d601f19601f8201168201806040525081019061057e9190611540565b506060600367ffffffffffffffff81111561059c5761059b611596565b5b6040519080825280602002602001820160405280156105ca5781602001602082028036833780820191505090505b50905085816000815181106105e2576105e16115c5565b5b602002602001019073ffffffffffffffffffffffffffffffffffffffff16908173ffffffffffffffffffffffffffffffffffffffff168152505073c02aaa39b223fe8d0a0e5c4f27ead9083c756cc281600181518110610645576106446115c5565b5b602002602001019073ffffffffffffffffffffffffffffffffffffffff16908173ffffffffffffffffffffffffffffffffffffffff16815250508481600281518110610694576106936115c5565b5b602002602001019073ffffffffffffffffffffffffffffffffffffffff16908173ffffffffffffffffffffffffffffffffffffffff1681525050737a250d5630b4cf539739df2c5dacb4c659f2488d73ffffffffffffffffffffffffffffffffffffffff166338ed173985858486426040518663ffffffff1660e01b81526004016107239594939291906116b2565b6000604051808303816000875af1158015610742573d6000803e3d6000fd5b505050506040513d6000823e3d601f19601f8201168201806040525081019061076b919061184b565b50505050505050565b6060600267ffffffffffffffff81111561079157610790611596565b5b6040519080825280602002602001820160405280156107bf5781602001602082028036833780820191505090505b50905073c02aaa39b223fe8d0a0e5c4f27ead9083c756cc2816000815181106107eb576107ea6115c5565b5b602002602001019073ffffffffffffffffffffffffffffffffffffffff16908173ffffffffffffffffffffffffffffffffffffffff1681525050828160018151811061083a576108396115c5565b5b602002602001019073ffffffffffffffffffffffffffffffffffffffff16908173ffffffffffffffffffffffffffffffffffffffff1681525050737a250d5630b4cf539739df2c5dacb4c659f2488d73ffffffffffffffffffffffffffffffffffffffff1663fb3bdb4134868486426040518663ffffffff1660e01b81526004016108c89493929190611894565b60006040518083038185885af11580156108e6573d6000803e3d6000fd5b50505050506040513d6000823e3d601f19601f82011682018060405250810190610910919061184b565b5060003373ffffffffffffffffffffffffffffffffffffffff164760405161093790611911565b60006040518083038185875af1925050503d8060008114610974576040519150601f19603f3d011682016040523d82523d6000602084013e610979565b606091505b50509050806109bd576040517f08c379a00000000000000000000000000000000000000000000000000000000081526004016109b490611983565b60405180910390fd5b5050505050565b6060600267ffffffffffffffff8111156109e1576109e0611596565b5b604051908082528060200260200182016040528015610a0f5781602001602082028036833780820191505090505b50905073c02aaa39b223fe8d0a0e5c4f27ead9083c756cc281600081518110610a3b57610a3a6115c5565b5b602002602001019073ffffffffffffffffffffffffffffffffffffffff16908173ffffffffffffffffffffffffffffffffffffffff16815250508281600181518110610a8a57610a896115c5565b5b602002602001019073ffffffffffffffffffffffffffffffffffffffff16908173ffffffffffffffffffffffffffffffffffffffff1681525050737a250d5630b4cf539739df2c5dacb4c659f2488d73ffffffffffffffffffffffffffffffffffffffff16637ff36ab534868486426040518663ffffffff1660e01b8152600401610b189493929190611894565b60006040518083038185885af1158015610b36573d6000803e3d6000fd5b50505050506040513d6000823e3d601f19601f82011682018060405250810190610b60919061184b565b5060003373ffffffffffffffffffffffffffffffffffffffff1647604051610b8790611911565b60006040518083038185875af1925050503d8060008114610bc4576040519150601f19603f3d011682016040523d82523d6000602084013e610bc9565b606091505b5050905080610c0d576040517f08c379a0000000000000000000000000000000000000000000000000000000008152600401610c0490611983565b60405180910390fd5b5050505050565b60008054906101000a900473ffffffffffffffffffffffffffffffffffffffff1681565b600160009054906101000a900473ffffffffffffffffffffffffffffffffffffffff1681565b8473ffffffffffffffffffffffffffffffffffffffff166323b872dd3330856040518463ffffffff1660e01b8152600401610c9b939291906114d1565b6020604051808303816000875af1158015610cba573d6000803e3d6000fd5b505050506040513d601f19601f82011682018060405250810190610cde9190611540565b508473ffffffffffffffffffffffffffffffffffffffff1663095ea7b3737a250d5630b4cf539739df2c5dacb4c659f2488d846040518363ffffffff1660e01b8152600401610d2e92919061156d565b6020604051808303816000875af1158015610d4d573d6000803e3d6000fd5b505050506040513d601f19601f82011682018060405250810190610d719190611540565b506060600367ffffffffffffffff811115610d8f57610d8e611596565b5b604051908082528060200260200182016040528015610dbd5781602001602082028036833780820191505090505b5090508581600081518110610dd557610dd46115c5565b5b602002602001019073ffffffffffffffffffffffffffffffffffffffff16908173ffffffffffffffffffffffffffffffffffffffff168152505073c02aaa39b223fe8d0a0e5c4f27ead9083c756cc281600181518110610e3857610e376115c5565b5b602002602001019073ffffffffffffffffffffffffffffffffffffffff16908173ffffffffffffffffffffffffffffffffffffffff16815250508481600281518110610e8757610e866115c5565b5b602002602001019073ffffffffffffffffffffffffffffffffffffffff16908173ffffffffffffffffffffffffffffffffffffffff1681525050737a250d5630b4cf539739df2c5dacb4c659f2488d73ffffffffffffffffffffffffffffffffffffffff16638803dbee85858486426040518663ffffffff1660e01b8152600401610f169594939291906116b2565b6000604051808303816000875af1158015610f35573d6000803e3d6000fd5b505050506040513d6000823e3d601f19601f82011682018060405250810190610f5e919061184b565b50505050505050565b8273ffffffffffffffffffffffffffffffffffffffff166323b872dd3330876040518463ffffffff1660e01b8152600401610fa4939291906114d1565b6020604051808303816000875af1158015610fc3573d6000803e3d6000fd5b505050506040513d601f19601f82011682018060405250810190610fe79190611540565b508273ffffffffffffffffffffffffffffffffffffffff1663095ea7b3737a250d5630b4cf539739df2c5dacb4c659f2488d866040518363ffffffff1660e01b815260040161103792919061156d565b6020604051808303816000875af1158015611056573d6000803e3d6000fd5b505050506040513d601f19601f8201168201806040525081019061107a9190611540565b506060600267ffffffffffffffff81111561109857611097611596565b5b6040519080825280602002602001820160405280156110c65781602001602082028036833780820191505090505b50905083816000815181106110de576110dd6115c5565b5b602002602001019073ffffffffffffffffffffffffffffffffffffffff16908173ffffffffffffffffffffffffffffffffffffffff168152505073c02aaa39b223fe8d0a0e5c4f27ead9083c756cc281600181518110611141576111406115c5565b5b602002602001019073ffffffffffffffffffffffffffffffffffffffff16908173ffffffffffffffffffffffffffffffffffffffff1681525050737a250d5630b4cf539739df2c5dacb4c659f2488d73ffffffffffffffffffffffffffffffffffffffff166318cbafe586858486426040518663ffffffff1660e01b81526004016111d09594939291906116b2565b6000604051808303816000875af11580156111ef573d6000803e3d6000fd5b505050506040513d6000823e3d601f19601f82011682018060405250810190611218919061184b565b505050505050565b6000604051905090565b600080fd5b600080fd5b6000819050919050565b61124781611234565b811461125257600080fd5b50565b6000813590506112648161123e565b92915050565b600073ffffffffffffffffffffffffffffffffffffffff82169050919050565b60006112958261126a565b9050919050565b6112a58161128a565b81146112b057600080fd5b50565b6000813590506112c28161129c565b92915050565b600080600080608085870312156112e2576112e161122a565b5b60006112f087828801611255565b9450506020611301878288016112b3565b935050604061131287828801611255565b9250506060611323878288016112b3565b91505092959194509250565b600080600080600060a0868803121561134b5761134a61122a565b5b6000611359888289016112b3565b955050602061136a888289016112b3565b945050604061137b88828901611255565b935050606061138c88828901611255565b925050608061139d888289016112b3565b9150509295509295909350565b6000806000606084860312156113c3576113c261122a565b5b60006113d186828701611255565b93505060206113e2868287016112b3565b92505060406113f3868287016112b3565b9150509250925092565b6000819050919050565b600061142261141d6114188461126a565b6113fd565b61126a565b9050919050565b600061143482611407565b9050919050565b600061144682611429565b9050919050565b6114568161143b565b82525050565b6000602082019050611471600083018461144d565b92915050565b600061148282611429565b9050919050565b61149281611477565b82525050565b60006020820190506114ad6000830184611489565b92915050565b6114bc8161128a565b82525050565b6114cb81611234565b82525050565b60006060820190506114e660008301866114b3565b6114f360208301856114b3565b61150060408301846114c2565b949350505050565b60008115159050919050565b61151d81611508565b811461152857600080fd5b50565b60008151905061153a81611514565b92915050565b6000602082840312156115565761155561122a565b5b60006115648482850161152b565b91505092915050565b600060408201905061158260008301856114b3565b61158f60208301846114c2565b9392505050565b7f4e487b7100000000000000000000000000000000000000000000000000000000600052604160045260246000fd5b7f4e487b7100000000000000000000000000000000000000000000000000000000600052603260045260246000fd5b600081519050919050565b600082825260208201905092915050565b6000819050602082019050919050565b6116298161128a565b82525050565b600061163b8383611620565b60208301905092915050565b6000602082019050919050565b600061165f826115f4565b61166981856115ff565b935061167483611610565b8060005b838110156116a557815161168c888261162f565b975061169783611647565b925050600181019050611678565b5085935050505092915050565b600060a0820190506116c760008301886114c2565b6116d460208301876114c2565b81810360408301526116e68186611654565b90506116f560608301856114b3565b61170260808301846114c2565b9695505050505050565b600080fd5b6000601f19601f8301169050919050565b61172b82611711565b810181811067ffffffffffffffff8211171561174a57611749611596565b5b80604052505050565b600061175d611220565b90506117698282611722565b919050565b600067ffffffffffffffff82111561178957611788611596565b5b602082029050602081019050919050565b600080fd5b6000815190506117ae8161123e565b92915050565b60006117c76117c28461176e565b611753565b905080838252602082019050602084028301858111156117ea576117e961179a565b5b835b8181101561181357806117ff888261179f565b8452602084019350506020810190506117ec565b5050509392505050565b600082601f8301126118325761183161170c565b5b81516118428482602086016117b4565b91505092915050565b6000602082840312156118615761186061122a565b5b600082015167ffffffffffffffff81111561187f5761187e61122f565b5b61188b8482850161181d565b91505092915050565b60006080820190506118a960008301876114c2565b81810360208301526118bb8186611654565b90506118ca60408301856114b3565b6118d760608301846114c2565b95945050505050565b600081905092915050565b50565b60006118fb6000836118e0565b9150611906826118eb565b600082019050919050565b600061191c826118ee565b9150819050919050565b600082825260208201905092915050565b7f726566756e64206661696c656400000000000000000000000000000000000000600082015250565b600061196d600d83611926565b915061197882611937565b602082019050919050565b6000602082019050818103600083015261199c81611960565b905091905056fea2646970667358221220120c1cecb361092f7b5869e867d5f44c827f86ac379c42f302ae85a037042d2164736f6c634300080b0033",
  "immutableReferences": {},
  "source": "// SPDX-License-Identifier: GPL-3.0\n\npragma solidity ^0.8.11;\n\nimport \"@uniswap/v2-core/contracts/interfaces/IUniswapV2Factory.sol\";\nimport \"@uniswap/v2-periphery/contracts/interfaces/IUniswapV2Router02.sol\";\nimport \"@uniswap/v2-periphery/contracts/interfaces/IERC20.sol\";\nimport \"@uniswap/v2-core/contracts/interfaces/IUniswapV2Callee.sol\";\n\ncontract UniswapFunctions {\n    address internal constant UNISWAP_FACTORY_ADDRESS =\n        0x5C69bEe701ef814a2B6a3EDD4B1652CB9cc5aA6f;\n\n    address internal constant UNISWAP_ROUTER_ADDRESS =\n        0x7a250d5630B4cF539739dF2C5dAcb4c659F2488D;\n\n    IUniswapV2Router02 public uniswapRouter;\n    IUniswapV2Factory public uniswapFactory;\n\n    address private multiDaiKovan = 0x4F96Fe3b7A6Cf9725f59d353F723c1bDb64CA6Aa;\n\n    address private constant WETH = 0xC02aaA39b223FE8D0A0e5C4F27eAD9083C756Cc2;\n\n    constructor() {\n        uniswapRouter = IUniswapV2Router02(UNISWAP_ROUTER_ADDRESS);\n        uniswapFactory = IUniswapV2Factory(UNISWAP_FACTORY_ADDRESS);\n    }\n\n    function swapTokensForTokensTest(\n        address _tokenIn,\n        address _tokenOut,\n        uint256 _amountIn,\n        uint256 _amountOutMin,\n        address _to\n    ) external {\n        //transfer the tokenIn from msg.sender into this contract for the amount amountIn\n        //after this function is called this contract will have the amountIn amount of _tokenIn\n        IERC20(_tokenIn).transferFrom(msg.sender, address(this), _amountIn);\n        //next this contract needs to evaluate uniswapV2Router to spend that token we do\n        //that by calling approve on the tokenIn\n        IERC20(_tokenIn).approve(UNISWAP_ROUTER_ADDRESS, _amountIn);\n\n        address[] memory path;\n        path = new address[](3);\n        path[0] = _tokenIn;\n        path[1] = WETH;\n        path[2] = _tokenOut; //wbtc\n\n        IUniswapV2Router01(UNISWAP_ROUTER_ADDRESS).swapExactTokensForTokens(\n            _amountIn,\n            _amountOutMin,\n            path,\n            _to,\n            block.timestamp\n        );\n    }\n\n    function swapTokensForExactTokensTest(\n        address _tokenIn,\n        address _tokenOut,\n        uint256 _amountOut,\n        uint256 _amountInMax,\n        address _to\n    ) external {\n        IERC20(_tokenIn).transferFrom(msg.sender, address(this), _amountInMax);\n        IERC20(_tokenIn).approve(UNISWAP_ROUTER_ADDRESS, _amountInMax);\n\n        address[] memory path;\n        path = new address[](3);\n        path[0] = _tokenIn;\n        path[1] = WETH;\n        path[2] = _tokenOut; //wbtc\n\n        IUniswapV2Router01(UNISWAP_ROUTER_ADDRESS).swapTokensForExactTokens(\n            _amountOut,\n            _amountInMax,\n            path,\n            _to,\n            block.timestamp\n        );\n    }\n\n    /////////////////////Tokens to Tokens Ends/////////////////////////////////////////\n\n    function swapExactEthForTokensTest(\n        uint256 _amountOutMin,\n        address _tokenOut,\n        address _to\n    ) external payable {\n        address[] memory path;\n        path = new address[](2);\n        path[0] = WETH;\n        path[1] = _tokenOut;\n\n        IUniswapV2Router01(UNISWAP_ROUTER_ADDRESS).swapExactETHForTokens{\n            value: msg.value\n        }(_amountOutMin, path, _to, block.timestamp);\n\n        (bool success, ) = msg.sender.call{value: address(this).balance}(\"\");\n        require(success, \"refund failed\");\n    }\n\n    function swapTokensForExactEthTest(\n        uint256 _amountOut,\n        address _tokenIn,\n        uint256 _amountInMax,\n        address _to\n    ) external {\n        \n        \n        IERC20(_tokenIn).transferFrom(msg.sender, address(this), _amountInMax);\n        //IERC20(_tokenIn).approve(address(this), _amountInMax);\n        IERC20(_tokenIn).approve(UNISWAP_ROUTER_ADDRESS, _amountInMax);\n        \n        \n\n        address[] memory path;\n        path = new address[](2);\n        path[0] = _tokenIn;\n        path[1] = WETH;\n\n        IUniswapV2Router01(UNISWAP_ROUTER_ADDRESS).swapTokensForExactETH(\n            _amountOut,\n            _amountInMax,\n            path,\n            _to,\n            block.timestamp\n        );\n    }\n\n\n    function swapExactTokensForETHTest(\n\n        uint _amountIn,\n        address _tokenIn,\n        uint _amountOutMin,\n        address _to\n\n    ) external {\n\n        \n        IERC20(_tokenIn).transferFrom(msg.sender, address(this), _amountIn);\n        //IERC20(_tokenIn).approve(address(this), _amountIn);\n        IERC20(_tokenIn).approve(UNISWAP_ROUTER_ADDRESS, _amountIn);\n        \n        \n\n        address[] memory path;\n        path = new address[](2);\n        path[0] = _tokenIn;\n        path[1] = WETH;\n\n        IUniswapV2Router01(UNISWAP_ROUTER_ADDRESS).swapExactTokensForETH(_amountIn, _amountOutMin, path, _to, block.timestamp);\n\n    }\n//swapExactEthForTokens\n    function swapEthForExactTokensTest(\n        uint256 _amountOut,\n        address _tokenOut,\n        address _to\n    ) external payable {\n        address[] memory path;\n        path = new address[](2);\n        path[0] = WETH;\n        path[1] = _tokenOut;\n\n        IUniswapV2Router01(UNISWAP_ROUTER_ADDRESS).swapETHForExactTokens{value: msg.value}\n        (_amountOut, path, _to, block.timestamp);\n\n        (bool success, ) = msg.sender.call{value: address(this).balance}(\"\");\n        require(success, \"refund failed\");\n    }\n\n}\n",
  "sourcePath": "/home/adil/Desktop/UniswapV2/contracts/UniswapFunctions.sol",
  "compiler": {
    "name": "solc",
    "version": "0.8.11+commit.d7f03943.Emscripten.clang"
  },
  "schemaVersion": "3.4.4",
  "updatedAt": "2022-02-04T08:31:44.026Z",
  "devdoc": {
    "kind": "dev",
    "methods": {},
    "version": 1
  },
  "userdoc": {
    "kind": "user",
    "methods": {},
    "version": 1
  }
}